A000000000000DDCCABBAACDBEACDBEDAACEBDEBDACEBADC
B000000000000AACEBDDDCCEBADCCABBAACDBEACDBEDEBDA                                                                 
B201013172050AECEDEAECCEBCCBCCEBACBDDBACDBACEBAA
A201513171006CEBCDEECACBEBBADEACBADEACDBABCEBBAE                                                                 
B201513171024AECEEDCDCEEEADBBBDBAACDCACCCBEDDBAA                                                                 
A201513171011CDACABBAACDDECADBADAECEDEDBEACEBAEC                                                                 
A201513172004BECDABBAACDDAAADBEEAAABDDEBABCEBADC                                                                 
B201513171057ACADDDDBCCEBBDABACBAACDDEABABEDDBAB                                                                 
B201613171804AAEEDDCECCEBADCCAEBAACDBEDBDBEEEDAA                                                                 
B201513171805AECEBDCECCEBADBCABBAACDDEACDBABEBAA                                                                 
B201513171034AACEDDDDCCEBADDCCEBAACDDEECDBEECDBA                                                                 
B201613171005AEEBDECDACEBADCCABBAACDEEACDBEDEBAA                                                                 
B201513172025AECEDDDDCCCCCDCCABBAACDDEECDBEDEBAA                                                                 
B201413172904AEEEDDCECCEBACCCADBAACDDEACDBEDCBBA                                                                 
A201313172087CEACCCCEACDBEBCDBEDAECDDEDBAACEBADC                                                                 
B201313172011ABCBDDCDCCEBABCCBBCAACDCEBCDBEDEBAA                                                                 
B201613172002ABCEDEBECCCBADCCABBAACDBEACDBEEABDA                                                                 
B201313172030AECBDDCDCCEBAABCBBBAACDCABCDBEDEBAA                                                                 
A201513171014CDACAEBAACDBAACABEDABCEEDEBDACEBAAC                                                                 
A201713171076CACCABCAACDDEACDBEDAAEEBDEBAACEBAEC                                                                 
A200913171014CDCCABBAACDADACDBEEEACDBEEBAACEBABA                                                                 
B201513172016AACEDDEBACEEADCCBEBEACDCEACDBEDEBDA                                                                 
A201513172061DDCCABBAACDBEACDBEDAACEBDDDDACEEABC                                                                 
A201513172010DDCCAABAACDEBACDBEBAABBDDEBAACEAEBC                                                                 
A201513171074EEACAEAAECDDAACEBACADEEDEEBDACEBABC                                                                 
A201313172074CECCBBBDACECACCEBADBCCBDDDBCACEBCCA                                                                 
A201513172039CECCBBBDACDDBCAAEEDAACADDEBAAEEBAEA                                                                 
A201313172038ABCBBDCDCCEAAABCBBBAACBBDCCABBDABDE                                                                 
B201613172804AEEEDDCDACEBEDCCACBEACDAEACDBEDEBAA                                                                 
A201613171035CDCCCCBAACDAAACDBEBABBCBDABEACEBAEC                                                                 
A201613172906DDACABBAACDEEACDBEDAAEBDDEBAACEBADC                                                                 
B201613172054AAEEDBADCCEBBDCCCBBAACDBAACABEDEBEA                                                                 
B201813172083AAECDDCDCCEBBDCCAEBAACDBEACDBEDEBAA                                                                 
B201613171002AEBEDECDACEBADCCABBAACDBBACDBEDCBAB                                                                 
B201713171078AABBDECDCAEBADCCABBAACDDEECDBEDEBAA                                                                 
A201613171008CECCAABAACDEAACDBCDAABEBDEDAACEBAEC                                                                 
A201613172013CDCCAACAACDBAABDBEBAACEDDCBDACCBADB                                                                 
B201513172804AECEDDCDCCEBAEBCABBAACDDBACDBEEDBAA                                                                 
A201513172028CDCCAABAACDEEABDBEDAEDEAEEDEACEBEEA                                                                 
A201613172065CEACCBBAACDAEACDBEDAEAEDDDDAACEBADC                                                                 
B201613172007AAEEDDDDCCEAADDCACBAACDBAACDBEAEBAA                                                                 
A201313172022DDCCACBAACDEEECDBEDAEBEDDDBAACEBADB                                                                 
B201613171802AACEDDCDCCEAAECCABBAACDDEACDBEDEBAA                                                                 
A201613172025BDCCABCAACDEAAADBEDAACBDDEBAACEBAEC                                                                 
B201413172802BAABBDCECCCBACBCBDBAACDEBBCDBEECBAA                                                                 
A201613171055EDCCABBAACDBAECDBEDACCBDDEBAACEBADC                                                                 
B201313172026ACBBDDCDACEBADDCABBDDCDEEACDBCEDBAA                                                                 
A201413172072CDCCADBAABDBEACABEDAACBDECBAACABADC                                                                 
B201513172018AACEDEADCCEBADBBDBBAACDDAAADBDDEBAA                                                                 
A201513171010CDCCAEBAACDDEACDBEDAABBBDDBDACEBADB                                                                 
A201813171084BDCCABBAACDCBACDBEEAECEBDEBAACECADD                                                                 
A201813172074BDCCABCAACDDEAADBEDAACEBDEBAACEBADC                                                                 
B201613172071AAEEDDEEACECADECABBAECDEEACDBEDEBDA                                                                 
B201513171013AEEEBDDEACEEADCDABBAACDDEACDBEDDBDA                                                                 
A201313171063CBACCBBAACDDBEADEEDBCEBDDDBAACEABBC                                                                 
B201513171053AADBDDCBADEBDCBCDBBACCACECBDBEDCBAA                                                                 
A201613171031CDACABBAABDDEACDBEEAAEEDEEBDACEBADE                                                                 
B201513172022ABCBBDEDCCEBCDBCCBBAACDEEAADEEDDDEB                                                                 
B201613172047AABEDEADACEBAEBCABBAACDAEACDBEEEBAA                                                                 
A201413171904CDCCDBBADCDEEACDBEDAACEDDEBAACEBAEC                                                                 
B201413171040AECBADCECCEBADCCDBBAACDBDACDEEDDBAA                                                                 
B201313172085AACEDDCDCCEBADBCAEBAACDDEECABEDEBDA                                                                 
A201413172005CDCCAEBAACDBEACDBEDAACEDDABAACCEADC                                                                 
A201513171051DDCCABBAACDBEACDBEDAACEDEEBAACEBADC                                                                 
A201513172063DEACABBADCDBEABDBECAAEEBBEBAACEBAEC                                                                 
B201513171055ABEBBDCDACEBADCCADBAACDDEACDBEDEBAB                                                                 
A201313172015DEACCBBADCDEAECDBEDAAAEDDEBAADEBEDA                                                                 
B201313172013ADCBDDDECCEBADCCADBAACDDEACDBEDEBAA                                                                 
A201513171906CDCCABAAACDBEACDBEDAAEEDDEBAACCCAEC                                                                 
B201413172013AACEDDCDCCEBADCCADBAACDDAACDBEDEBAA                                                                 
A201813171089EDCCABBAACDDEACDBEEAACEDDEBDACECADC                                                                 
A201413171018DEACADBAACDBBEBABEDAEAEDEEBAAEEBAEB                                                                 
A201613171038DDCCABBAACDDEACDBCDAACEDDABAACCBADC                                                                 
B201513172032AEEEDDBDCCEBADCCABBAACDDAACABECEBAA                                                                 
A201513171044CECCCBBEACDEEABABADABEBDDDBAACEBADB                                                                 
B201513171040EAEEDDDDACEBADCCAABAACDEEABABEDEBAA                                                                 
A201613171907DDCCABBAABDBEAADEEDAABEDDEBDBCCBAAC                                                                 
B201513171900EAACDDDDACABCDBECEDAACDEEABDBCDEBAA                                                                 
A201613172004CDCCABBAACDDEACDBEDAAEBDEEBAACEBADB                                                                 
A201513172810BDCCA BADCDDEECDBEEAEBEDDEBDACEBADC                                                                 
A201513171022DDCCABBAACDBEDCDBEDAACEDDEBABCEBADC                                                                 
A201513172045CEABABBAACDDEACDBEDBAABDDEBAACCBADD                                                                 
A201613171903DDACABBAABDDAACDBEDAAEEDDEBAACEBADC                                                                 
B201613171007AACEBEDDCCEBADCCABBACCDDEACDBECEBAA                                                                 
B201213171026AAEEDEDDCCEBADCCAABAACDDAACDBEEEBDA                                                                 
B201613171057ABEEDEBDCCEBAACCCBBAACDDADCDBEDCBAA                                                                 
A201513171050AECCBDBEDCDBAEAABEDBAEADECBAACEBCB                                                                  
A201613172909BECCABBAACDDAACDBEDAEBEDDEBAACEBADC                                                                 
B201413172004AACEBDDBCCCBADBCABBAACDBEACDBEDEBAA                                                                 
A201513172035ADCCBBBAACDDEABABEDAACEEDEBAACEEAEC                                                                 
B201413172073AEEEEDCDCECBDDACAEAAABDEEABABCECBAA                                                                 
B201613172034AACEDDCECCEBADCCCBBAACDDEACDBEEEDAA                                                                 
B201613172010ABBBDDCDCCEBADBCCBBAACDDBACDBEDEDDA                                                                 
A201613172069CBCCABACACDBAABABAAAACEBDEBAACEBABC                                                                 
B201113171003AACBDDCECCEBADBCBBBAACDBADCDBEEEBAA                                                                 
A201213171071CDCCDBBAACDBAACABEDAABBDDEBDACEBADC                                                                 
B201613171006AACEBDDDACEBADBCBBBAACDEEDCDBEDEBAA                                                                 
B201413171069AACEDDDECCEAADCCABBAACDBEACDBEDEBDA                                                                 
B201413172033BAACEECDCCEBADCCABBEACDDECCABEDEBEA                                                                 
A201613172058ADCCCEBCCCDDBAAABEDABCBDDDBDACEADDB                                                                 
B201613171030EACEDDCDACEBCEBCCBBAACDAADAEBEDBDDA                                                                 
B201513172008AACEDDCDACEBADBCABBAACDDEACDBEDEBAA                                                                 
A201713072801CECCABBAACDEABCEBEDAEEEDECBAACCBAEC                                                                 
A201613172021CDCCABBDACDDEACDEEDAABADDDBDACEBADE                                                                 
B201513171031BABBDBCDCCEBADECABBAACDEEACDBEDEBAA                                                                 
B201513172067AABBDEDBCCEBACCBDDBBACDDACCABEDEDDA                                                                 
A201413171008CECCABBAACDEAEBDBEDBABEDDDBAACEBADE                                                                 
B201613171012AACEDDCDACEBADCCBBBBACDEADCDBEEEBDA                                                                 
B201413171074ADCBDDCDCCECADBCBDBAACDCEACDBEEEBDA                                                                 
A201413171075DEACABBAACDDEACABEDAACEEDEAAACEBAEC                                                                 
A201613172046CECCCBEAACDBAACABEDAACBDDABDACEBADC                                                                 
A201613171003CDCCABBAACDBEACDBEDACCBDEEBAACEBADC                                                                 
B201413172041AADBDDCDCCAACECCCBBAEBCBEAEDAECEBAA                                                                 
A201513172033DDCCAEAAACDEEACDBEDAACEDDEBDACEBAEC                                                                 
A201313172040ABAADBBCADDDEACECEEAABDEECBEDCBCCCC                                                                 
A201513171026CDCCABEAACDCAACABEDABCEDDEBAACECADC                                                                 
B201313172012BECEDDCECCEAECCECEECACEAEDAABEDEBEA                                                                 
B201513171066AAAEEDCDCCEBADCCAABAACDDEACDBEDEBAA                                                                 
A201313172007CDACBCBDACDEADAABCDABCEBDCBAACEBACE                                                                 
B201513171041AACEDDDDCCEBDACCBBBAACDDEACDBEDEBAA                                                                 
A201513171025ADCCBBBAECDDADCDBEBAACEDDCBAABECABC                                                                 
A201713171801DEACDBBAACDDEAADBEDBBCEDEEBAACEBADC                                                                 
B201413172059ABCCDDEBCCEBBDCCCBBAACACDACABADEBAA                                                                 
A201513171071CDCCAABAACDEEACDBEDAACEDDEBAACEBADC                                                                 
A201813172075DECCABBAACDEAACDBEDABCEDDEBAACEBAEE                                                                 
B201613171070AACBDDCEACEEADACAEBAACDDEACABEDEBDA                                                                 
B201613172079DECEDDEECBEEAABCCDBCECDCADAAEDDCBAA                                                                 
A201513172906EDCCABBAACDDEECDBEEBEDEDEEBDACEBADD                                                                 
B201613172801AACBADCDCCEBAECCCBBAACDDAACDBECEBDA                                                                 
A201513171803DBCCABCAACDCEECABEDAAEEBEDBAACEBAEC                                                                 
A201613171044DDCCABBAACDDAACCBEBAACEDEEBAACEBADD                                                                 
A201513172043EEACABBAAEDEADCDBEDAEEBDDCBDACCBADD                                                                 
A201613172049EBACABBAACDEEACDBDEAAABDDEBAACEBADE                                                                 
A201413172905CDACAEBAACDDEAADBEDAECEBDEBDACEBADB                                                                 
A201513172031CDCCAEBAABDEEACEEBDABEBDEEDDACEBADC                                                                 
A201413171061EBACAEBBACDEAACDBCDAAEBDEEBAACEBBDC                                                                 
A201613172028DDACCBBAACDBEACEBEBAACEDECBDACCBECC                                                                 
A201413172806CEACABBAACDDEACDBEDAAEEDDEBAACEBADD                                                                 
A201513171029DECCABBAACDDAACDBEDAAEEDDEBAACEEADC                                                                 
A201413171051DDACCABAACDEAACDBEDAACBDDDBDACEBADD                                                                 
A201213172014DDACCBBAACDEEECDBEDAEBEDEEBABCECADE                                                                 
A201613171021ADCCAEBAACDEEACDBEDEEEBEDABDBCEBAED                                                                 
A201513171017DDACABBAACDDEACDBEDAAEEBDEBAACECADC                                                                 
A201513171054CBCBBBBAACDDADCDBEDAABBBDDBAACCBADC                                                                 
B201613171078AECEDDCECCEBADCCABBAACDEEACABEDEDAB                                                                 
B201613171048AAEEBDDDCCEBADCCABBAACDBEACDBEDEBAA                                                                 
B201413172064ABCCBDAECCEDEBBCCCCBACDAABEDBEDDBAA                                                                 
B201013172019ADABDDCBCCEBACBBADCAACDABBBCBAAEBAA                                                                 
B201413172068AEBEEBCDCCEEAECCBEBAACDEEEADBEBCBAA                                                                 
B201513172050AACBDD DACEBCECCCDBCACBEBABABADCBAA                                                                 
B201513171047AAEEBDCDCCEBADCCABBAACDEBACDBEDEBAA                                                                 
B201313171030AACEBDDDACECADBCACBAACDBEACDBEDABAA                                                                 
B201513171004AACEDDCDCCECABADABBAACDDAACEBEEDBAA                                                                 
B201513172062AAEEBDAEACEBADCCABBAACDDEACDBEDCBAA                                                                 
B201613172903EEEEDDDDCCCBADECABBAACDDEACDBECEBDA                                                                 
B201513171058AACEDDDDCCEBCDBDADBAACDCEACAEEDDBAA                                                                 
B201813072097AACEDDDDACEBCDCCABBAACDDEABDBEDEBDA                                                                 
B201513171064AAEBBDCDACEBADCCAEBAACDBDACDBEDEBAA                                                                 
B201613172805ABEBDDEECCEBADECABBAACDDAAAABEDBBAA                                                                 
B201613172043EBCBDDDDACEBCDCCAABCAEABEDBDBCDCDAA                                                                 
B201813171088AACEBDABCCEBADCCCEAEACDEDAAEBECCBAA                                                                 
B202113172052AACEBDDDCCEBADCCABBAACDBEACDBEDEBDA